:100000000C9457010C947F010C947F010C947F0198
:100010000C947F010C947F010C947F010C947F0160
:100020000C947F010C947F010C9477030C94C3050E
:100030000C947F010C947F010C947F010C947F0140
:100040000C947F010C947F010C947F010C947F0130
:100050000C947F010C947F010C947F010C941D0B78
:100060000C947F010C947F010C947F010C947F0110
:100070000C947F010C947F010C947F010C947F0100
:100080000C947F010C947F010C947F010C947F01F0
:100090000C947F010C947F010C947F010C947F01E0
:1000A0000C947F010C947F010C947F01590A5C0A27
:1000B0004B0A4F0A550A7D0A7D0A7D0A600A640AC6
:1000C000680A6E0A720A7D0A780A0000000023009E
:1000D000260029002C002F00000000000000000076
:1000E0002A2B280000000000000000000000000093
:1000F00000000000000000002C9EB4A0A1A2A434C7
:10010000A6A7A5AE362D3738271E1F20212223246F
:100110002526B333B62EB7B89F8485868788898A0B
:100120008B8C8D8E8F909192939495969798999AA7
:100130009B9C9D2F3130A3AD350405060708090AA5
:100140000B0C0D0E0F101112131415161718191A87
:100150001B1C1DAFB1B0B500080B0002020201006C
:10016000090400000102020000052400100105241A
:10017000010101042402060524060001070581038C
:1001800010004009040100020A00000007050202F5
:100190004000000705830240000004030904120127
:1001A0000002EF02014041233680000101020301F9
:1001B00041726475696E6F204C4C430041726475E6
:1001C000696E6F204C656F6E6172646F0000000095
:1001D00000240027002A002D003000000000002528
:1001E0000028002B002E0031000404040404030442
:1001F00005020202020403020202020606060606C5
:1002000006040402020204040408020110408040B3
:10021000102040804080080204018040201002012C
:10022000108010204040200000000200090F000054
:10023000030401000C0000000000000000000000AA
:1002400000000000000005010902A1010901A10050
:10025000850105091901290315002501950375017B
:1002600081029501750581030501093009310938BD
:100270001581257F750895038106C0C00501090613
:10028000A1018502050719E029E71500250175017F
:10029000950881029501750881039506750815007A
:1002A00025730507190029738100C000670B11240D
:1002B0001FBECFEFDAE0DEBFCDBF11E0A0E0B1E0BE
:1002C000E8EFFBE102C005900D92AE33B107D9F71C
:1002D00022E0AEE3B1E001C01D92A736B207E1F71C
:1002E00011E0C7E5D1E004C02197FE010E94EF0DA7
:1002F000C635D107C9F70E943A0D0C94FA0D0C943B
:10030000000040914C0150914D0120914A013091E3
:100310004B0142175307B4F49091E8009570E1F354
:100320009091E80092FD19C08093F10080914C01FA
:1003300090914D0101968F739927892B19F48EEFB7
:100340008093E80080914C0190914D01019690932B
:100350004D0180934C0181E0089580E00895DF9283
:10036000EF92FF920F931F93CF93DF93D82EF92E26
:10037000E42E062F10E0C8010196880F0E9481012B
:1003800083E00E948101CD2DDF2D0C0F1D1FC017B2
:10039000D10789F0E7FE03C0FE01849101C0888186
:1003A0000E948101F82E80E00E9481018F21219618
:1003B0008111EDCF01C081E0DF91CF911F910F91AD
:1003C000FF90EF90DF900895DF92EF92FF920F93EE
:1003D0001F93CF93DF93D82E8A017B01E40EF51E85
:1003E000EB01CE15DF0571F0D7FE03C0FE0184914D
:1003F00001C088810E94810121968111F2CF8FEF87
:100400009FEF01C0C801DF91CF911F910F91FF9025
:10041000EF90DF900895615030F02091F100FC01E1
:1004200020830196F8CF289884E68093520108959E
:10043000CF92DF92EF92FF920F931F93CF93DF93B0
:100440006C017A018B01C0E0D0E0CE15DF0581F0B0
:10045000D8016D918D01D601ED91FC910190F08153
:10046000E02DC6010995892B11F02196EECF7E0172
:10047000C701DF91CF911F910F91FF90EF90DF9017
:10048000CF900895DC01FB0112968C91129790E0B9
:100490002481358182179307D1F491818081813A3B
:1004A00031F481E0913091F0933089F411C08132C0
:1004B00071F49B3021F482811F968C9305C09A3091
:1004C00031F4828150968C9381E00895089580E004
:1004D0000895DC01FB0188E4808389E4818384E45E
:1004E00082831D969C911D979F709F5B93831D96A1
:1004F0008D919C911E9724E0969587952A95E1F71A
:100500008F708F5B848385E00895EF92FF920F9345
:100510001F93CF93DF93FB012081213851F5238175
:10052000223239F5DC0112962C9130E0448155815C
:1005300042175307F1F4EC010B851C85E12CF12CDB
:100540000115110591F0F801448155816281738193
:1005500080E80E94E4018F3FFFEF9F0769F0E80EFB
:10056000F91ED8010D911C91EBCF81E08F87C70157
:1005700005C080E090E002C08FEF9FEFDF91CF9148
:100580001F910F91FF90EF900895CF93DF93CDB718
:10059000DEB769970FB6F894DEBF0FBECDBFFC0182
:1005A000DB018C918F5F8C93BE016F5F7F4F89E180
:1005B000DB011D928A95E9F729E0298384E08A838B
:1005C00091E09D8383E08E832A8721E22B879C879D
:1005D0009D879F8722E2288B27E02B8B25E02C8BA1
:1005E0008E8B20E430E0388F2F8B998F82818B8324
:1005F00095858685998B8A8B838180688D8B49E16F
:1006000050E080E00E94E40169960FB6F894DEBFE6
:100610000FBECDBFDF91CF910895FC0182818F5B2A
:10062000FB01808381E00895CF92DF92EF92FF92E9
:100630000F931F93CF93DF936C01EB017B01E40ECB
:10064000F51E00E010E0CE15DF0581F069916D30F8
:10065000D1F3D601ED91FC910190F081E02DC6011E
:100660000995892B19F00F5F1F4FEDCFC801DF915E
:10067000CF911F910F91FF90EF90DF90CF90089551
:10068000089580E090E008950E94F50D0F931F9368
:10069000CF93DF93EC018B0160E089810E947E0A99
:1006A00081E090E0AC01088002C0440F551F0A941D
:1006B000E2F74150980154E0369527955A95E1F7B5
:1006C00001C0880F2A95EAF748276A818B810E942A
:1006D000AD0A402F4F706A818B810E94AD0A61E0A4
:1006E0008981DF91CF911F910F910C947E0A1F9207
:1006F0000F920FB60F9211248F939F938091E10078
:100700009091E100937F9093E10083FF0FC01092DE
:10071000E90091E09093EB001092EC0092E390934B
:10072000ED001092530198E09093F00082FF20C0FA
:1007300093E09093E9009091F200992319F09AE3E5
:100740009093E80090914F01992339F090914F01D7
:10075000915090934F01992389F1909152019923DF
:1007600039F090915201915090935201992341F1A7
:1007700084FF10C08091E2008E7E81608093E20051
:100780008091E1008F7E8093E100809150018E7E08
:10079000806111C080FF16C08091E2008E7E806172
:1007A0008093E2008091E1008E7E8093E100809151
:1007B00050018E7E81608093500104C05D9ACDCF40
:1007C000289AD6CF9F918F910F900FBE0F901F90B8
:1007D00018952FB7F89487708093E9009091E800FE
:1007E000892F807295FF04C09091F20080E4891BEC
:1007F0002FBF08957F928F929F92AF92BF92CF9218
:10080000DF92EF92FF920F931F93CF93DF93C82E47
:100810008B017A0180915301811103C08FEF9FEF0B
:1008200070C08091500180FF05C08091E00082601F
:100830008093E000CE2DDF2DD12C8AEFB82E8C2DA9
:100840008770982E8C2D8072882E8C2D8074782E37
:100850009AE3A92E209719F4DD2009F44DC08C2DC0
:100860000E94E903811106C0BA94BB20B9F20E942C
:10087000BF09F0CF282F30E0C217D3070CF48C2F1C
:100880009FB7F8949092E9002091E80025FF32C0CC
:10089000282F30E0C21BD30B882029F08150A0F014
:1008A0001092F100FBCFF801C7FE0AC0815050F052
:1008B00044914093F1003196F9CF41914093F1007A
:1008C0008150D8F7020F131FDD2019F0A092E80025
:1008D0000AC08091E80085FD08C0A092E800DD24F0
:1008E000D394209739F0D12C05C0209719F47110BA
:1008F000A092E8009FBFAECF5D9884E680934F0141
:10090000C701DF91CF911F910F91FF90EF90DF9082
:10091000CF90BF90AF909F908F907F9008950F934E
:100920001F93CF93DF931F92CDB7DEB78B018091DA
:100930006501811105C00E94D90981E0809365019C
:1009400082E0898341E050E0BE016F5F7F4F80917C
:1009500057010E94FA0397FD08C08091570148E0B3
:1009600050E0B80180640E94FA030F90DF91CF91AC
:100970001F910F910895DC01683810F0685825C068
:10098000E62FF0E067FF12C0E058F10981E090E047
:1009900001C0880FEA95EAF7809514969C91149708
:1009A000892314968C93149760E00FC0E852FF4F90
:1009B00064916623F9F067FF08C014968C91149730
:1009C0008D7F14968C9314976F77FD0186E06623D4
:1009D00021F09681691301C01682815031968111F0
:1009E000F6CFCD01BD016C5F7F4F0E948F0481E087
:1009F00090E0089580E090E00895DC01683810F000
:100A000068582DC0E62FF0E067FF11C0E058F109EB
:100A100081E090E001C0880FEA95EAF714969C9176
:100A20001497892B14968C93149760E018C0E852A1
:100A3000FF4F6491611109C081E090E013969C938F
:100A40008E93129780E090E0089567FF08C0149697
:100A50008C911497826014968C9314976F771696E6
:100A60008C911697681751F117968C911797681704
:100A700029F118968C911897681701F119968C91A5
:100A800019976817D9F01A968C911A976817B1F0D0
:100A90001B968C911B97681789F0FD01369680E0B4
:100AA00090E02191211105C0FD01E80FF91F668337
:100AB00005C0019686309105A1F7BECFCD01BD01DD
:100AC0006C5F7F4F0E948F0481E090E00895EF9269
:100AD000FF921F93CF93DF93EC01162F0E94FD042A
:100AE0007C01612FCE010E94BB04C7019927DF91D1
:100AF000CF911F91FF90EF90089580914201811155
:100B00000DC082E080933E0184E080933F0110920B
:100B100041011092400181E0809342018EE391E017
:100B200008950F931F93CF93DF931F92CDB7DEB736
:100B300082E0898342E450E068E571E080E80E9449
:100B4000E4010E947D05DC0112960D911C91139722
:100B50000115110589F0D801ED91FC910280F38116
:100B6000E02DBE016F5F7F4FC801099597FD04C05E
:100B7000F80100851185ECCF89810F90DF91CF912D
:100B80001F910F9108951F920F920FB60F9211248B
:100B9000CF92DF92EF92FF920F931F932F933F9389
:100BA0004F935F936F937F938F939F93AF93BF9375
:100BB000EF93FF93CF93DF93CDB7DEB76C97DEBF94
:100BC000CDBF1092E9008091E80083FFFBC168E08F
:100BD000CE0145960E940B0282EF8093E8008D893A
:100BE00087FF05C09091E80090FFFCCF03C09EEF07
:100BF0009093E800982F907609F0C6C09E894F899F
:100C0000588D2F89F88C91110CC0803829F480916F
:100C100051018093F10002C01092F1001092F10096
:100C200045C1913051F4811141C14130510509F064
:100C30003DC1809151018D7F0BC0933061F48111D2
:100C400035C14130510509F031C1809151018260B7
:100C5000809351012BC1953049F48091E80080FFC9
:100C6000FCCF822F80688093E30020C1963009F08A
:100C70005EC00B8D1C8D22E01092E90010924D0198
:100C800010924C01F21232C010924B0110924A01A4
:100C90000E94910599E0BE016F5F7F4FDB01E92F54
:100CA0001D92EA95E9F79983FA8291E09E8390EA92
:100CB00098879AEF998720914C0130914D01275FD9
:100CC0003F4F3C832B838D831092E90010924D019E
:100CD00010924C0110934B0100934A0149E050E0FF
:100CE00080E00E94E4010E949105E0C010934B0156
:100CF00000934A010E947D05DC0112960D911C9122
:100D000013970115110509F4BBC0D801ED91FC91B1
:100D10000480F581E02DBE016B5E7F4FC80109950F
:100D2000009709F0C7C0F80100851185EACF973018
:100D300009F445C1983021F481E08093F100B6C0F8
:100D4000993009F0B3C0837009F039C1EDE0F1E0EA
:100D500081E031E096E32081211109C08EE7809384
:100D6000EA001092EA008F89809353019FC080931C
:100D7000E9003093EB0021912093EC009093ED007B
:100D80008F5F873041F7EACF8B8D9C8D1092E90001
:100D900010924D0110924C0190934B0180934A01A7
:100DA000898D811153C08E899D89913A49F4813290
:100DB00009F005C147E050E064E071E080E0BBC0AD
:100DC000913209F0FCC0833269F48F89988DA0E0DC
:100DD000B0E08093000190930101A0930201B093D1
:100DE000030164C0803269F48091E80082FFFCCF87
:100DF00067E084E091E00E940B028BEF8093E800B3
:100E000055C0823209F052C08F8980930B01EEEFFA
:100E1000FFE7859194918B3F9C4D19F0E0E0F8E05D
:100E200002C0EEEFFAE08091040190910501A091DB
:100E30000601B0910701803B9440A105B10509F07E
:100E40009EC080910B0180FF79C099C00E947D05F2
:100E5000FC01028113810115110509F4B0C0D8010C
:100E6000ED91FC910190F081E02DBE016B5E7F4F12
:100E7000C801099581111AC0F80100851185EBCFD1
:100E8000F1E0FF1609F44EC0F3E0FF1298C08F891D
:100E9000882309F44AC0823089F440E860E18CEB91
:100EA00091E00E94AF01882309F489C08EEF8093FE
:100EB000E80088C018161906CCF381C0813029F4E7
:100EC00040E86BE080EB91E0ECCF833009F077C035
:100ED0000E947D05DC011296ED90FC9013978E0127
:100EE0000F5F1F4F6801E114F10479F0D701ED9114
:100EF000FC910680F781E02DB801C7010995080F24
:100F0000111DF701E084F184EECFD8011C92F601A7
:100F100001900020E9F73197BF016C197D0940E08D
:100F2000C601BFCF6EE971E002C06AE971E0FB0162
:100F3000449150E080E80E94E401B8CFEE3F2AE0FF
:100F4000F20751F0808191818737A7E79A0721F056
:100F50009093FF0A8093FE0A87E797E79183808347
:100F60008091600080934E019BE088E10FB6F89479
:100F7000A895809360000FBE9093600097CF80810A
:100F800091818737974709F091CFA89580916000AC
:100F900088618093600080914E0180936000EE3FF5
:100FA000BAE0FB0739F08091FE0A9091FF0A918325
:100FB00080837CCF1092FF0A1092FE0A77CF81E2E5
:100FC0008093EB006C960FB6F894DEBF0FBECDBFDA
:100FD000DF91CF91FF91EF91BF91AF919F918F9151
:100FE0007F916F915F914F913F912F911F910F9141
:100FF000FF90EF90DF90CF900F900FBE0F901F905B
:1010000018950F931F93CF93DF93EC010E851F85E7
:101010006881660F615070E0C8010E94460360E07D
:10102000F80184810E94D50AF801248130E0F90199
:10103000E95DFD4F8491F901E85FFD4F0491F901ED
:10104000E751FE4F1491112379F081110E94410A5A
:10105000E12FF0E0EE0FFF1FE653FF4FA591B49193
:10106000EC91E02381E009F480E08C839B8198136C
:1010700050C08D819E81AF81B885892B8A2B8B2BA7
:1010800051F48D85811107C00E94110B6D837E8301
:101090008F83988715C00E94110B0D811E812F81AF
:1010A0003885DC01CB01801B910BA20BB30B0A9797
:1010B000A105B10528F0012B022B032B09F056C026
:1010C0000E94110B0D811E812F813885DC01CB011F
:1010D000801B910BA20BB30B0A97A105B105C8F0B9
:1010E0000E851F856881798161507048660F70E0B8
:1010F000C8010E94460361E0F80184810E94D50A7C
:1011000061E0F80184810E947E0A8BEC97E00197F0
:10111000F1F79B8181E089279C81981340C08985E4
:101120009A85AB85BC85892B8A2B8B2B51F48D85B9
:10113000882339F00E94110B69877A878B879C87F7
:101140002EC00E94110B09851A852B853C85DC0178
:10115000CB01801B910BA20BB30B0A97A105B10524
:10116000F0F0012B022B032B49F419C081E08D878D
:101170006A818DE691E00E94FD04A2CF8D858823CF
:1011800029F06A818DE691E00E94BB041D861D82D4
:101190001E821F82188619861A861B861C86DF917E
:1011A000CF911F910F91089520915301211103C0F8
:1011B0008FEF9FEF08955FB7F89422E02093E90046
:1011C0002091F20030E01216130614F421E030E012
:1011D000422FFC0184E6415038F028988093520158
:1011E0009091F1009193F7CF2115310521F0809175
:1011F000F200882319F05FBFC90108958BE6809340
:10120000E800F9CFCF93DF931F92CDB7DEB76983A4
:10121000DC01ED91FC910280F381E02D41E050E092
:10122000BE016F5F7F4F09950F90DF91CF910895B9
:1012300083E08093E9008091F200882319F08AE32B
:101240008093E8000895CF93DF931F92CDB7DEB768
:10125000FC018485958597FD05C02FEF3FEF35870D
:1012600024870BC0CE0101960E94D408019719F47F
:10127000898190E002C08FEF9FEF0F90DF91CF91B7
:1012800008950F931F93CF93DF931F92CDB7DEB7CF
:101290008C01FC018485958597FF0EC0CE010196D7
:1012A0000E94D408019719F4898190E002C08FEF61
:1012B0009FEFF80195878487F801848595850F90C5
:1012C000DF91CF911F910F910895FC018485958541
:1012D00097FD0BC09FB7F89482E08093E90080915E
:1012E000F2009FBF90E0019608959FB7F89482E0C6
:1012F0008093E9008091F2009FBF90E008953FB78E
:10130000F89480917E0190917F01A0918001B0912D
:10131000810126B5A89B05C02F3F19F00196A11D9C
:10132000B11D3FBFBA2FA92F982F8827820F911D7B
:10133000A11DB11DBC01CD0142E0660F771F881FC2
:10134000991F4A95D1F70895CF93DF93EC018091CF
:101350000B01882331F083E00E94FA031816190666
:1013600034F081E090E09B838A8380E090E0DF911D
:10137000CF91089583E00E94E90390E00895CF9211
:10138000DF92EF92FF920E947F096B017C010E9425
:101390007F09DC01CB018C199D09AE09BF09883E8C
:1013A0009340A105B10598F3FF90EF90DF90CF90A7
:1013B000089581E080935801809359012EE531E032
:1013C00030935B0120935A0110925D0110925C01F1
:1013D00027E131E0309355012093540110926001D0
:1013E00010925F011092620110926101809363017B
:1013F0008093640181EC80935E010E947D05FC0175
:1014000021818091580190E0820F911D0897C4F5C9
:10141000A281B381109729F484E591E093838283BC
:101420000EC018968D919C911997009711F0DC01D0
:10143000F8CF84E591E019969C938E93189780815C
:101440008093560181818093570190818091590149
:10145000890F808380E090915801891788F4A091CA
:101460005A01B0915B01A80FB11D9C91A181B0E020
:10147000A45FBE4F9C9391819F5F91838F5FEBCF61
:10148000089590E0FC013197EF30F105B0F5EA5A8C
:10149000FF4F0C94EF0D809180008F7703C08091F7
:1014A00080008F7D80938000089580918000877FE9
:1014B000F9CF84B58F7702C084B58F7D84BD089540
:1014C000809190008F7707C0809190008F7D03C03E
:1014D00080919000877F8093900008958091C00054
:1014E0008F7703C08091C0008F7D8093C0000895E6
:1014F0008091C200877F8093C20008951F93CF938D
:10150000DF93282F30E0F901E95DFD4F8491F90167
:10151000E85FFD4FD491F901E751FE4FC491CC2310
:10152000C1F0162F81110E94410AEC2FF0E0EE0F5E
:10153000FF1FE552FE4FA591B4919FB7F89411118A
:1015400004C08C91D095D82302C0EC91DE2BDC93A3
:101550009FBFDF91CF911F910895EF92FF920F935C
:101560001F93CF93DF93E82EF62EC7E0D0E0042F31
:1015700010E0B8010C2E02C0759567950A94E2F749
:1015800061708E2D0E947E0A61E08F2D0E947E0A7E
:1015900060E08F2D0E947E0A219758F7DF91CF914E
:1015A0001F910F91FF90EF900895CF93DF9390E0FC
:1015B000FC01E85FFD4F2491FC01E751FE4F84914F
:1015C000882361F190E0880F991FFC01E353FE4FDF
:1015D000C591D491FC01E552FE4FA591B4916111E2
:1015E00009C09FB7F8948881209582238883EC9165
:1015F0002E230BC0623061F49FB7F8948881322F9C
:10160000309583238883EC912E2B2C939FBF06C0AB
:101610008FB7F894E8812E2B28838FBFDF91CF916D
:1016200008952FB7F89460917A0170917B018091B1
:101630007C0190917D012FBF08951F920F920FB6EC
:101640000F9211242F933F938F939F93AF93BF9348
:1016500080917A0190917B01A0917C01B0917D01F4
:101660003091790123E0230F2D3720F40196A11D3D
:10167000B11D05C026E8230F0296A11DB11D2093C0
:10168000790180937A0190937B01A0937C01B093C0
:101690007D0180917E0190917F01A0918001B091A8
:1016A00081010196A11DB11D80937E0190937F0160
:1016B000A0938001B0938101BF91AF919F918F91D1
:1016C0003F912F910F900FBE0F901F901895CF93C1
:1016D000DF93109285011092840188EE93E0A0E0E0
:1016E000B0E08093860190938701A0938801B09326
:1016F000890183E291E090938301809382018FEFCF
:101700009FEF90938F0180938E011092E001809162
:10171000D801811113C01092D3011092D20186E436
:1017200092E09093D5018093D40186E390E090936A
:10173000D7018093D60181E08093D8018091650123
:10174000811105C00E94D90981E080936501E09173
:101750005F01F0916001309739F482ED91E0909350
:10176000600180935F010AC080819181009711F030
:10177000FC01FACF82ED91E0918380832091610199
:10178000309162018091D6019091D701820F931F11
:1017900090936201809361011092700110926F0129
:1017A00085E391E090936E0180936D018091E70154
:1017B000811113C01092E2011092E1018CE792E0D6
:1017C0009093E4018093E3018FE290E09093E6012F
:1017D0008093E50181E08093E701809165018111AB
:1017E00005C00E94D90981E080936501E0915F0105
:1017F000F0916001309739F481EE91E090936001AF
:1018000080935F010AC080819181009711F0FC01F3
:10181000FACF81EE91E09183808320916101309134
:1018200062018091E5019091E601820F931F9093F0
:10183000620180936101CFE5D2E086E080935F0290
:101840008093600285E08093610287E0809362026A
:1018500083E18093630280E094E09093650280933B
:10186000640280E18093660261E086E00E94D50A0E
:1018700061E0809161020E94D50A61E0809162027C
:101880000E94D50A82E190E09093500280934F022B
:1018900081E68093510210925202109253021092EC
:1018A0005402109255021092560210925702109252
:1018B00058021092590210925A0210925B02109232
:1018C0005C02D0935E02C0935D0284E190E090934D
:1018D000400280933F0282E68093410210924202CE
:1018E0001092430210924402109245021092460256
:1018F00010924702109248021092490210924A0236
:1019000010924B0210924C02D0934E02C0934D02A3
:1019100086E190E09093300280932F0283E68093DB
:10192000310210923202109233021092340210925D
:10193000350210923602109237021092380210923D
:10194000390210923A0210923B0210923C02D0935C
:101950003E02C0933D0288E190E090932002809384
:101960001F0284E680932102109222021092230229
:101970001092240210922502109226021092270241
:10198000109228021092290210922A0210922B0221
:1019900010922C02D0932E02C0932D0282E090E090
:1019A0009093100280930F0285E6809311021092AB
:1019B0001202109213021092140210921502109249
:1019C0001602109217021092180210921902109229
:1019D0001A0210921B0210921C02D0931E02C09396
:1019E0001D0286E090E0909300028093FF0186E65E
:1019F00080930102109202021092030210920402DC
:101A0000109205021092060210920702109208022C
:101A10001092090210920A0210920B0210920C020C
:101A2000D0930E02C0930D028DE290E09093F001EE
:101A30008093EF0187E68093F1011092F2011092FA
:101A4000F3011092F4011092F5011092F601109238
:101A5000F7011092F8011092F9011092FA01109218
:101A6000FB011092FC01D093FE01C093FD01DF91B8
:101A7000CF910895789484B5826084BD84B58160E7
:101A800084BD85B5826085BD85B5816085BD809149
:101A90006E00816080936E001092810080918100C1
:101AA00082608093810080918100816080938100B9
:101AB000809180008160809380008091910082609D
:101AC000809391008091910081608093910080913A
:101AD00090008160809390008091C1008460809329
:101AE000C1008091C10082608093C1008091C100DB
:101AF00081608093C1008091C30081608093C300A6
:101B00008091C00082608093C0008091C20081609B
:101B10008093C20080917A00846080937A008091E3
:101B20007A00826080937A0080917A00816080934D
:101B30007A0080917A00806880937A001092530135
:101B400010925101109250018091D70081608093D2
:101B5000D70080EA8093D80089B5806189BD89B5B6
:101B6000826089BD09B400FEFDCF0E94BF0980914B
:101B7000D8008F7C80618093D8008091E000807FC6
:101B80008093E0008091E1008E7E8093E1008DE003
:101B90008093E200559A209AC0E0D0E08FE492E072
:101BA0000E9401088FE392E00E9401088FE292E018
:101BB0000E9401088FE192E00E9401088FE092E00C
:101BC0000E9401088FEF91E00E9401088FEE91E0E2
:101BD0000E940108209711F30E940000DFCFEE0F52
:101BE000FF1F0590F491E02D099481E090E0F894B6
:081BF0000C94FA0DF894FFCFEC
:101BF800FFFFFFFF00E100000000000000C180813E
:101C0800000000000000004202C5028502690200CF
:101C18000000000209A409BA091809650923094145
:0E1C280009000000006705140341034003009B
:00000001FF
